:020000040800F2
:100000006807002089010008B71C00084F17000886
:10001000A11B0008510300084D2300080000000048
:10002000000000000000000000000000F31E0008B7
:100030005904000800000000F11E0008F51E000829
:10004000A3010008A3010008A3010008A301000800
:10005000A3010008A3010008A3010008A3010008F0
:10006000A3010008A3010008A3010008A3010008E0
:10007000A3010008A3010008A3010008A3010008D0
:10008000A3010008A3010008A3010008A3010008C0
:10009000A3010008A3010008A3010008A3010008B0
:1000A000A3010008A3010008A3010008A3010008A0
:1000B000A3010008A3010008A3010008A301000890
:1000C000A3010008A3010008A3010008A301000880
:1000D000A301000841230008A3010008A3010008B0
:1000E000A3010008A3010008A301000800F002F822
:1000F00000F03AF80AA090E8000C82448344AAF188
:100100000107DA4501D100F02FF8AFF2090EBAE885
:100110000F0013F0010F18BFFB1A43F0010318473B
:10012000102B0000302B0000103A24BF78C878C193
:10013000FAD8520724BF30C830C144BF04680C60ED
:10014000704700000023002400250026103A28BF35
:1001500078C1FBD8520728BF30C148BF0B60704739
:100160001FB51FBD10B510BD00F058F81146FFF7C0
:10017000F7FF02F0FDF800F076F803B4FFF7F2FFA6
:1001800003BC00F07DF8000009488047094800479B
:10019000FEE7FEE7FEE7FEE7FEE7FEE7FEE7FEE737
:1001A000FEE7FEE704480549054A064B7047000094
:1001B000571F0008ED0000086801002068070020B4
:1001C00068030020680300204FF0000200B51346CA
:1001D00094469646203922BFA0E80C50A0E80C5067
:1001E000B1F12001BFF4F7AF090728BFA0E80C5018
:1001F00048BF0CC05DF804EB890028BF40F8042B11
:1002000008BF704748BF20F8022B11F0804F18BF7D
:1002100000F8012B7047704770477047754600F033
:100220002BF8AE4605006946534620F00700854688
:1002300018B020B5FFF7B6FFBDE820404FF000062C
:100240004FF000074FF000084FF0000B21F00701BE
:10025000AC46ACE8C009ACE8C009ACE8C009ACE801
:10026000C0098D46704710B50446AFF300802046A4
:10027000BDE81040FFF781BF00487047080100202B
:1002800001491820ABBEFEE72600020070470000BF
:100290002DE9F0410F46064600F03AF840F2E7310A
:1002A00048436421B0FBF1F0184CC0B20125207026
:1002B000092E17D2DFE806F01605090D11181616DB
:1002C0001F0000F09BF865700BE000F08BF8022037
:1002D00006E000F0A9F8032002E000F0B1F80420E5
:1002E0006070A570BDE8F08100F094F800206070A7
:1002F000A570642001E027B1C820BDE8F04100F0FE
:1003000029B8BDE8F04100F041B80000000000202D
:1003100001480079704700000400002010B5012258
:100320000549064801F0BEF903480021401F01704D
:100330003221017110BD000009000020C000002022
:1003400070470000014988607047000004000020E9
:10035000FEE7000070B5084C05460022012120464A
:1003600000F0FEF9284600F078F82046BDE870401D
:100370000122114600F0F4B9000C0140012211469F
:10038000014800F0EDB90000000C014001221146C7
:10039000014800F0E5B90000000C014010B5104C18
:1003A00000220121204600F0DBF9642000F055F81E
:1003B00001221146204600F0D3F9642000F04DF8E8
:1003C00000220121204600F0CBF9642000F045F81E
:1003D00020460122BDE81040114600F0C1B90000DE
:1003E000000C014010B504460146002001F028FC35
:1003F0002146BDE81040012001F022BC10B50446A2
:100400000146002001F01CFC2146BDE810400120FF
:1004100001F016BC10B501F041FC0248002101803A
:10042000418010BD1000002010B504460146002098
:1004300001F006FC2146BDE81040012001F000BC9F
:1004400010B504460146002001F0FAFB2146BDE844
:100450001040012001F0F4BB704700224FF4E1533B
:1004600007E0002100BF491C89B29942FAD3521C0F
:1004700092B28242F5D3704772B6FEE710B590F89B
:1004800021100022022905D00421816380F8202058
:10049000012010BD01680B6823F00E030B6001689A
:1004A0000B6823F001030B6090F84030C46B01210E
:1004B00001FA03F3636080F8211080F820201046D1
:1004C00010BD000010B590F821100024022903D0BF
:1004D0000421816301243DE001680A6822F00E02D4
:1004E0000A6001680A6822F001020A601A4A01687B
:1004F000914201D1012121E0174A1432914201D1E8
:1005000010211BE0144A2832914201D1891515E0CF
:10051000114A3C32914201D189140FE00E4A503207
:10052000914202D14FF4803108E00B4A643291428B
:1005300002D14FF4801101E04FF08071064A083A71
:100540005160012180F82110002180F82010416BBA
:1005500001B18847204610BD0800024070B504462E
:1005600000F004F90546601C02D0044800780444F9
:1005700000F0FCF8401BA042FAD370BD1800002028
:100580002DE9F84FDFF8B8910024A9F1040B2346B8
:100590000F2709F1040AABF1040EC9E00125A540BB
:1005A0002A40AA427DD1674ED1F804C0ACEB0608C0
:1005B000B44532D014DCBCF1030F3AD009DCBCF1F5
:1005C000000F2AD0BCF1010F1CD0BCF1020F31D1B9
:1005D0001DE0BCF1110F17D0BCF1120F2AD119E0A8
:1005E000B8F5881F19D006DCB8F5803F15D0B8F5EE
:1005F000801F1FD111E0B8F5001F0ED0B8F5041F01
:1006000018D10AE0CB6815E0CB681B1D12E0CB685F
:1006100008330FE0CB680C330CE08B682BB1012B57
:100620004FF0080303D0456104E0042302E00561B4
:1006300000E00023FF2A01D8064601E000F104068D
:100640004FEA840501D9A5F12005D6F8008007FA04
:1006500005FC28EA0C0803FA05F548EA0508C6F87F
:1006600000804D68ED0062D5374DAE6946F0010659
:10067000AE61AD6924F0030605F001050095334D28
:1006800006EB050CDCF80850A607360F07FA06F84B
:1006900025EA0805DFF8B880404503D14FF000088F
:1006A00017E044E0DFF8AC80404502D14FF001088C
:1006B0000FE0DFF8A480404502D14FF0020808E0C7
:1006C000DFF89880404502D14FF0030801E04FF079
:1006D000040808FA06F848EA0508CCF808804D68CE
:1006E000D9F80060ED024D4601D5164300E096436F
:1006F0002E604D68DAF80060AD02554601D516430C
:1007000000E096432E604D68DBF80060AD035D4667
:1007100001D5164300E096432E604D68DEF8006078
:10072000ED03754601D5164300E096432E60641C28
:100730000D682A46E5407FF431AFBDE8F88F000030
:1007400008040140000011100010024000000140A8
:1007500000080140000C014000100140001401405D
:100760000AB1016170470904FBE700000148806895
:10077000704700001800002070B5040025D094F8E0
:100780003D00002520B984F83C50204600F04EF989
:10079000242084F83D002068016821F001010160F7
:1007A0002068016841F4004101602068016821F47B
:1007B0000041016000F096FA4D4A6168914201D80B
:1007C0004C4900E04C49884201D2012070BD4B49A0
:1007D0002368B0FBF1F15E6826F03F060E435E60D1
:1007E0006368934206D94FF4967359434FF47A7372
:1007F000B1FBF3F12368491C1E6A26F03F06314322
:1008000019626168914210D84900401EB0FBF1F2B4
:10081000521CC2F30B02042A01D2042022E0B0FBD6
:10082000F1F0401CC0F30B001CE0A268F2B301EB36
:10083000C10303EB0116431EB3FBF6F35B1C43F449
:1008400080431B0549D092B301EBC10202EB0111B9
:10085000401EB0FBF1F0401CC0F30B0040F48040A0
:1008600040F400402168CA694CF6FF739A43104374
:10087000C861D4E9071001432068026822F0C00271
:1008800011430160D4E9030101432068826848F202
:10089000FF339A4311438160D4E90501084321687D
:1008A000CA6822F0FF021043C86001E00EE016E0C3
:1008B0002068016841F0010101602564202084F86E
:1008C0003D00256384F83E50002070BD01EB4106D9
:1008D000431EB3FBF6F35B1CB3E70120C2E701EB59
:1008E0004101401EB0FBF1F0401CC0F30B00B7E724
:1008F000A086010080841E0000093D0040420F00D8
:100900002DE9F84F1F4690468A460446DDF82890A8
:10091000FFF72CFF054694F83D0020287FD11923CE
:10092000012240492046009500F0A4FF002876D11E
:1009300094F83C00012872D0012084F83C00206823
:100940000168C90703D1016841F001010160206815
:10095000016821F400610160212084F83D0010202D
:1009600084F83E0000262664C4F824806785608DE4
:1009700020852D48E0622B464A465146204600F02D
:10098000FFFE90B9206841698069009036E02A46F0
:100990004946204601F014F850B1206C042804D1D7
:1009A0002068016841F4007101600120BDE8F88F02
:1009B000606A216800780861606A401C6062618D2D
:1009C000491E6185218D491E89B22185226853699E
:1009D000DB435B070BD451B100781061606A401CA7
:1009E0006062608D401E6085208D401E20852A46F5
:1009F0004946204600F012FF0028CED1208D002865
:100A0000C5D154F83D0B016841F40071016020200C
:100A100004F81E09E67766770020C7E7FFE70220A3
:100A2000C4E70000020010000000FFFF10B586B010
:100A30000021009101910291039100680F498842C1
:100A40001AD10F4CA06940F00800A061A069694666
:100A500000F008000490C0200090122001900320B4
:100A600003900848FFF78CFDE06940F40010E06156
:100A7000E06900F40010049006B010BD005400407E
:100A800000100240000C01400248816802781144C5
:100A90008160704718000020074810B5016841F0D8
:100AA00010010160032000F075F80F2000F006F837
:100AB00000F024F8002010BD0020024070B50D4D5C
:100AC00004464FF47A712878B1FBF0F00A490968BE
:100AD000B1FBF0F000F0DCFA48B9102C07D200228C
:100AE0002146501E00F036F800206C6070BD0120D9
:100AF00070BD000018000020140000200C4808B54C
:100B0000816941F001018161816901F00101009178
:100B1000C16941F08051C161C06900F0805000900E
:100B20000448416821F0E06141F00071416008BD76
:100B30000010024000000140002809DB00F01F0205
:100B4000012191404009800000F1E020C0F800112F
:100B500070470000F0B40E4B1B680C46C3F3022331
:100B6000C3F10705042D00D90425191D072901D259
:100B7000002300E0DB1E012606FA05F1491E214094
:100B800099409E40761E16403143F0BC01F0DFBB19
:100B90000CED00E0064900F0070208684FF6FF037D
:100BA000184040EA0220034A1043086070470000E2
:100BB0000CED00E00000FA052DE9F0470F460500B6
:100BC00061D0434E306800F00700B84209D2306867
:100BD00020F0070038433060306800F00700B8426A
:100BE00051D128683B4C810712D5400703D5606876
:100BF00040F4E06060602878000703D5606840F446
:100C0000605060606068A96820F0F0000843606090
:100C10002878C00728D06868012810D021680228E9
:100C200010D0890700292EDA616821F00301014301
:100C30006160FFF79BFD804641F288390DE0216835
:100C40008903EFE78901EDE7FFF790FDA0EB0801CD
:100C5000494502D90320BDE8F0876068696800F063
:100C60000C00B0EB810FEFD1306800F00700B84204
:100C70000BD9306820F0070038433060306800F04E
:100C80000700B84201D00120E5E72878400705D5E4
:100C90006068E96820F4E060084360602878000735
:100CA00006D56068296920F4605040EAC1006060A0
:100CB00000F038F86168084AC1F30311515CC8407C
:100CC0000649086006480068FFF7F8FE0020C2E702
:100CD0000020024000100240062C000814000020F2
:100CE0001C0000200448054900684968044AC1F313
:100CF0000221515CC84070471400002000100240DF
:100D0000162C00080448054900684968044AC1F3E4
:100D1000C221515CC84070471400002000100240FE
:100D2000162C00080E4A51680E4801F00C03042BE3
:100D300011D0082B0FD10C48C1F38343C903C05C09
:100D40000AD55168084AC1F34041921E515C054AD8
:100D50005043B0FBF1F0704704494843704700002E
:100D60000010024000127A00202C000800093D000B
:100D70002DE9F84F040070D02078C04DC00749D04D
:100D80006868C0F38100012807D06868C0F381005B
:100D9000022809D16868C00306D52868800339D5C0
:100DA00060680028E7D035E06068B0F5803F0BD080
:100DB00010B1B0F5A02F11D0286820F48030286041
:100DC000286820F4802002E0286840F48030286001
:100DD000606890B1FFF7CAFC06460AE0286840F454
:100DE00080202860F0E700BFFFF7C0FC801B64286C
:100DF00073D828688003F7D50CE0FFF7B7FC0646E8
:100E000005E000BFFFF7B2FC801B6428F0D828681B
:100E10008003F7D420789A4E80074FF001094FF0F5
:100E2000000839D5686810F00C0F07D06868C0F367
:100E30008100022809D16868C00306D428688007A9
:100E400014D52069012808D110E02069B0B1C6F896
:100E50000090FFF78BFC074605E00AE1FFF786FCF0
:100E6000C01B0228C4D828688007F7D528686169A4
:100E700020F0F80040EAC10028600DE0C6F80080CC
:100E8000FFF774FC074604E0FFF770FCC01B022864
:100E900023D828688007F7D4207800072CD5794814
:100EA000A169D9B1C0F80090FFF760FC074604E0E3
:100EB000FFF75CFCC01B02280FD8686A8007F7D5D3
:100EC00071484FF4FA510068B0FBF1F0009000BF98
:100ED0000098411E0091FAD20EE080E0C0F8008038
:100EE000FFF744FC074604E0FFF740FCC01B022864
:100EF00075D8686A8007F7D42078400760D5E8691C
:100F00000027C00008D4E86940F08050E861E86933
:100F1000012700F0805000905C480168C90513D497
:100F20000168834641F480710160FFF71FFC82462F
:100F300006E000BFFFF71AFCA0EB0A0064284ED8B9
:100F4000DBF80000C005F5D5E06801280AD008B13B
:100F5000052813D0286A20F001002862286A20F0B2
:100F6000040002E0286A40F001002862E06841F2D3
:100F7000883B98B1FFF7FAFB82460BE0286A40F005
:100F800004002862EEE700BFFFF7F0FBA0EB0A01C8
:100F900059455AD8286A8007F6D50CE0FFF7E6FBDA
:100FA000824605E0FFF7E2FBA0EB0A0159454CD869
:100FB000286A8007F6D41FB1E86920F08050E86104
:100FC000E06988B36968C1F38101022944D002282D
:100FD000C6F8608004D0FFF7C9FB044638E034E06F
:100FE000FFF7C4FB074604E0FFF7C0FBC01B022865
:100FF0002BD828688001F7D4206AB0F5803F05D14E
:101000006868A16820F4003008436860D4E90801EA
:101010000843696821F4741108436860C6F8609059
:10102000FFF7A4FB044606E025E000BFFFF79EFBA8
:10103000001B022809D828688001F7D51BE000BFF3
:10104000FFF794FB001B022802D90320BDE8F88FAC
:1010500028688001F4D40EE00128F7D06868226A7D
:1010600000F48031914204D1616A00F4701088422A
:1010700001D00120EAE70020E8E70000001002406C
:1010800000004242800442421400002000700040F0
:1010900010B5401EB0F1807F01D3012010BD4FF08C
:1010A000E02460610F21601701F051F90020A06178
:1010B00007202061002010BD70B590F83C20012A67
:1010C00026D0012480F83C40022280F83D200368AD
:1010D0005A689D6822F070060A6832435A600D4BC8
:1010E00002689A4208D0B2F1804F05D00A4B9A426A
:1010F00002D00A4B9A4204D1496825F08003194373
:10110000916080F83D40002180F83C10084670BD99
:10111000022070BD002C0140000400400008004087
:1011200000B585B000210091019102910391006802
:10113000B0F1804F11D10A48816941F00401816109
:101140008069694600F004000490032000900220AA
:10115000019003900348FFF713FA05B000BD0000AB
:10116000001002400008014070B5044690F83C00B1
:1011700000260D4601280FD0012084F83C006AB1FA
:10118000042A1DD0082A2FD00C2A3FD00126002087
:1011900084F83C00304670BD022070BD206800F02D
:1011A00025FF2068816941F008018161206881691B
:1011B00021F004018161206881692A69114311E0ED
:1011C000206800F03BFF2068816941F40061816183
:1011D0002068816921F480618161206881692A69C0
:1011E00041EA02218161D2E7206800F053FF2068C4
:1011F000C16941F00801C1612068C16921F00401A1
:10120000C1612068C1692A69114311E0206800F0BA
:101210006DFF2068C16941F40061C1612068C16946
:1012200021F48061C1612068C1692A6941EA022113
:10123000C161ACE710B5040003D094F83D0010B1D3
:1012400007E0012010BD002084F83C00204600F09B
:101250001FF8022084F83D00211D206800F07CFE6C
:10126000012084F8460084F83E0084F83F0084F8AA
:10127000400084F8410084F8420084F8430084F878
:10128000440084F8450084F83D00002010BD0000B3
:1012900008B50068B0F1804F08D10548C16941F038
:1012A0000101C161C06900F00100009008BD0000AB
:1012B0000010024010B50446022249B104290ED0A4
:1012C000082913D094F84100012816D0012010BD40
:1012D00094F83E000128F9D184F83E200FE094F8FC
:1012E0003F000128F2D184F83F2008E094F8400044
:1012F0000128EBD184F8402001E084F8412001224C
:10130000206800F065FE0F492068884203D1426CD6
:1013100042F4004242642068884208D0B0F1804F15
:1013200005D00949884202D00849884204D1816821
:1013300001F00701062903D0016841F001010160B5
:10134000002010BD002C01400004004000080040B7
:1013500070477047F8B5016804460868CA684B6969
:1013600010F00F0F4FF0000559D003F0010602F402
:101370009077374365D0C10705D0D10503D5616C9F
:1013800041F001016164410705D5D90703D0616CC3
:1013900041F002016164810705D5D90703D0616C72
:1013A00041F004016164010707D502F020013143D7
:1013B00003D0616C41F008016164616C00293AD08E
:1013C000800604D5900602D5204600F0E0FE206895
:1013D0004069616CC0F38010090700D460B32046F7
:1013E00000F0AEFE20684069400621D52068143028
:1013F00050E8001F21F0400140E80012002AF5D11A
:10140000E06BA8B16D494163E06BFFF75BF8002822
:1014100011D0E06B416B01B0BDE8F0400847830696
:101420000FD593060DD52046BDE8F84000F0AFBEBD
:101430002046FFF78EFFF8BD2046FFF78AFF656460
:10144000F8BD266B2023012E7CD1C6067AD5D606A0
:1014500078D508684868009048694FF00206400651
:1014600040D5E16B086840680004000CE8D0A28D0C
:101470008242E5D9E085886920282DD020680C308B
:1014800050E8001F21F4807140E80012002AF5D1D5
:101490002068143050E8001F21F0010140E80012DC
:1014A000002AF5D12068143050E8001F21F04001D7
:1014B00040E80012002AF5D184F842302563206804
:1014C0000C3050E8001F21F0100140E80012002A03
:1014D000F5D1E06BFEF7D2FF6663A08DE18D401A77
:1014E00081B22AE0A08DE18D401A81B2E08D002802
:1014F000A6D00029A4D022680C3252E8000F20F4B4
:10150000907042E80007002FF5D12068143050E8B1
:10151000002F22F0010240E80027002FF5D184F8C7
:101520004230256320680C3050E8002F22F0100272
:1015300040E80023002BF5D166632046FFF708FF43
:10154000F8BDFFE705062BD5150629D594F841000F
:101550002128F5D1A068B0F5805F01D12069B0B134
:10156000206A411C2162216800784860E08C401E9E
:101570000004000CE084E3D12068C16821F0800100
:10158000C1602068C16841F04001C160D8E7206AAD
:101590000088C0F308004860206A801C2062E5E7EC
:1015A0004006CDD55006CBD5CA68204622F0400271
:1015B000CA6084F8413000F0C9F8C1E73121000861
:1015C00070B5040004D094F84100002510B106E085
:1015D000012070BD84F84050204600F023F82420FC
:1015E00084F841002068C16821F40051C1602046A0
:1015F00000F02EFE2068016921F49041016120680D
:10160000416921F02A0141612068C16841F400511B
:10161000C1606564202084F8410084F8420065635D
:10162000002070BD30B585B0002400940194029470
:1016300003940068184988422CD11848816941F404
:1016400080418161816901F480410491816941F0A7
:10165000040181618069124D00F0040004904FF490
:1016600000700090022001900320039069462846F4
:10167000FEF786FF2815CDE9000469462846029446
:10168000FEF77EFF002211462520FFF763FA252092
:10169000FFF752FA05B030BD00380140001002409B
:1016A0000008014090F84230202B01D00220704702
:1016B00021B11AB10023036300F026BE0120704758
:1016C00070B500681E49884239D11E4C002520782B
:1016D000627905280DD2DFE800F0030715181B001A
:1016E000AA2A07D1012002E0552A02D10220207047
:1016F00000E02570BDE8704012490122491D1248E2
:10170000FFF7D0BF62700320F1E7A2700420EEE77C
:10171000E270052020706078A17880EA010383F0F0
:10172000FF039342E5D1062804D12171642901D930
:1017300064222271A268002ADBD09047D9E770BDED
:101740000038014004000020C00000207047FEE780
:1017500001684A69D24352050FD46FF480624A612E
:10176000002140F8301F202242738173026942F049
:1017700004020261017301207047002070470000DD
:10178000F8B50446C06A1E460D461746082807D01D
:10179000012805D010F5803F02D0206B122804D11B
:1017A0002068016841F480710160134600224FF007
:1017B00001112046009600F05DF840B120680068F5
:1017C000C00502D54FF4007020640320F8BD2069E5
:1017D000B0F5804F0ED00620216800EAD51040F009
:1017E000F000086133463A460B49204600F08AF87B
:1017F00078B902E005F0FE0000E0E8B22168086177
:10180000054933463A46891F204600F07BF80028F8
:10181000DCD00120F8BD00000800010070B51646BC
:101820000D4604461EE02046FFF792FF08B1012056
:1018300070BD681C16D0FEF799FF801BA84200D827
:1018400085B920684069C04340070BD5002044F8A3
:10185000300F20216173A073216941F020012161C3
:101860002073E4E720684069C0434007DBD40020D0
:1018700070BD00002DE9F047984617460D46044616
:10188000C1F30746DDF820902AE000BFB8F1FF3F22
:1018900026D0FEF76BFFA0EB0901414502D8B8F155
:1018A000000F1DD12068012E16D0806925EA0000A6
:1018B0000004000C12D00020B84211D1002044F8DE
:1018C000300F20216173A073216941F02001216153
:1018D00020730120BDE8F0874069E7E70120EBE7CE
:1018E0002068012E0AD0806925EA00000004000C5F
:1018F00006D00020B842C9D00020EBE74069F3E7EA
:101900000120F7E72DE9F047984616460D460446B4
:101910004FF000094FF0200AC1F3074723E0206889
:101920004069C043400515D42068016841F4007146
:10193000016021686FF480604861C4F8309084F8D9
:101940003DA084F83E90216C41F00401216484F8AC
:101950003C9021E0701C06D0FEF708FFA0EB0800C9
:10196000B04203D816B1012F1FD021E02068012F0B
:1019700015D0806925EA00000004000C18D000BFD3
:1019800044F8309F84F80DA084F80E90216941F04E
:101990002001216184F80C900120BDE8F0874069A6
:1019A00025EA00000004000CEAD12068406901E04B
:1019B0002068806925EA00000004000CAFD1ECE744
:1019C00070B516460D4604461EE02046FFF7C0FEE1
:1019D00008B1012070BD681C16D0FEF7C7FE801B41
:1019E000A84200D885B920684069C04300060BD5DD
:1019F000002044F8300F20216173A073216941F069
:101A0000200121612073E4E720684069C04300069B
:101A1000DBD4002070BD00002DE9F04186B0002429
:101A20001F480094019402940394816941F02001BD
:101A30008161816901F020010491816941F0040113
:101A40008161816901F004010491816941F008011B
:101A500081618069134F00F0080004900022F0219A
:101A60003846FEF77DFEDFF8408000220121404627
:101A7000FEF776FEF02001250326CDE90005CDE92D
:101A8000024669463846FEF77BFD03960095CDE990
:101A9000015469464046FEF773FD06B0BDE8F0818B
:101AA0000010024000080140000C01400D4810B534
:101AB0000B4901604CF25031416000214FF48042EB
:101AC0008160C0E9031241618161C1610162FEF779
:101AD00053FE002803D0BDE81040FEF7CDBC10BD7A
:101AE000005400402400002010B58AB00024079460
:101AF0001C2168460894FEF767FB1A484FF08041A6
:101B000001604721C0E9011440F2E731C0E9031444
:101B10008461FFF78FFB08B1FEF7AEFC079407A9BD
:101B200010480894FFF7C8FA08B1FEF7A5FC60203A
:101B3000CDE900040294002269460A480494FFF7A4
:101B400013FB08B1FEF798FC042269460548FFF72D
:101B50000BFB08B1FEF790FC0248FFF7E1FA0AB070
:101B600010BD0000780000200C4810B50A49016043
:101B70004FF4E1314160002181600C22C160C0E975
:101B800004128161C161FFF71BFD002803D0BDE88D
:101B90001040FEF771BC10BD00380140C0000020AD
:101BA000FEE7000010B500F079F800210448FFF7C7
:101BB00081FBBDE8104004210148FFF77BBB00001A
:101BC000780000202DE9F0410B460746B2F57A7FF8
:101BD00001D340F2E732194E174C3068B7B14021BB
:101BE00080258263012B15D0022B4FF00002204686
:101BF00016D0FEF7B5FD002229462046FEF7B0FDBF
:101C000031680020AFB18863BDE8F0811021202544
:101C10004263E7E701222046FEF7A2FD002202E030
:101C2000FEF79EFD012229462046BDE8F041FEF761
:101C300097BD4863E8E700000008014078000020F5
:101C40002DE9F0410C46070005D0124D124E2888B0
:101C5000A04211D317E00F4DAD1EF7E7601A80B216
:101C6000322800D932200844316880B24FB18863ED
:101C700028800A20FEF772FC2988A142EED3BDE835
:101C8000F0814863F4E72C8030680FB18463F6E795
:101C90004463F4E71200002078000020002210B511
:101CA00011461046FFF78EFF0022BDE81040114696
:101CB0000120FFF787BFFEE770B5002404F1B000F4
:101CC000C0B200F0F1F8002000F0EEF8102000F0B3
:101CD000EBF80025002000F0F9F86D1CEDB2802D26
:101CE000F8D3641CE4B2082CE8D3BDE870400021AE
:101CF000084600F064B810B56420FEF72FFCAE2053
:101D000000F0D2F8D52000F0CFF8802000F0CCF819
:101D1000A82000F0C9F83F2000F0C6F8D32000F05A
:101D2000C3F8002000F0C0F8402000F0BDF88D207E
:101D300000F0BAF8142000F0B7F8202000F0B4F852
:101D4000022000F0B1F8A12000F0AEF8C82000F0A9
:101D5000ABF8DA2000F0A8F8122000F0A5F88120F6
:101D600000F0A2F8CF2000F09FF8D92000F09CF8F6
:101D7000F12000F099F8DB2000F096F8302000F018
:101D800093F8A42000F090F8A62000F08DF8AF2082
:101D900000F08AF8BDE81040FFF78EBF10B504468A
:101DA000B031C8B200F080F804F00F0000F07CF809
:101DB000102000EB1410BDE8104000F075B8FFF7DC
:101DC000EDBF00002DE9F0410746A2F120000E46CC
:101DD0005F2800D32022203AD5B2012B384610D0FC
:101DE000FFF7DCFF154905EB4500002401EB40053A
:101DF000285D00F06BF8641CE4B2062CF8D3BDE853
:101E0000F081FFF7CBFF0E48002400EB0515285D9D
:101E100000F05CF8641CE4B2082CF8D3761CF1B234
:101E20003846FFF7BBFF00242819007A00F04EF86F
:101E3000641CE4B2082CF7D3E1E70000CC290008C9
:101E4000DC2300082DE9F0411F461646884604466B
:101E5000012B01D006251DE008251BE06019802814
:101E600008D90024012F1AD05FF0010101EB08000E
:101E700000F0FF08012F14D05FF0010101EB080012
:101E800008280AD83B4641462046FFF79BFF6019C9
:101E9000C4B2761C3278002AE0D1BDE8F08102217C
:101EA000E4E70221EAE700001CB500218DF80410E8
:101EB0008DF8050064200090022301AA78210248D1
:101EC000FEF71EFD1CBD0000240000201CB54021B3
:101ED0008DF804108DF8050064200090022301AAFB
:101EE00078210248FEF70CFD1CBD000024000020F4
:101EF00070477047FEF7C8BD30B58FB028216846DF
:101F0000FEF762F914210AA8FEF75EF90121080420
:101F1000CDE900100024029402250491CDE9075078
:101F20004FF4E01009906846FEF722FF08B172B640
:101F3000FEE70F20CDE90A054FF48060CDE90C40A3
:101F400002210AA80E94FEF737FE002801D072B6CF
:101F5000FEE70FB030BD7047F0B50268194B1A4C60
:101F60001A4D4FF08047984205D0B84203D0A042A6
:101F700001D0A84203D122F070064A683243984249
:101F800005D0B84203D0A04201D0A84203D122F428
:101F90004074CA6822434C6922F0800222430260E6
:101FA0008A68C2620A688262984201D10969016343
:101FB000012141610169C90703D0016921F00101D3
:101FC0000161F0BD002C0140000400400008004009
:101FD00010B501F01F030121046A99408C4304628B
:101FE000016A9A401143016210BD000030B5036AD6
:101FF000026A22F0010202624268846924F07305D9
:102000000C682C4323F002058B682B430A4DA84231
:102010000BD123F00805CB6822F440722B434D69A5
:1020200023F0040315438A692A43426084614968A6
:102030004163036230BD0000002C014030B5026AEC
:10204000036A23F010030362436884690D6824F473
:10205000E64444EA05248D6822F0200242EA051293
:102060000B4DA8420ED1CD6822F0800242EA051243
:102070004D6923F4406343EA85038D6922F04002F1
:1020800043EA85034360846149688163026230BD2D
:10209000002C014030B5036A026A22F480720262A9
:1020A0004268C46923F4007324F073050C682C4360
:1020B0008D6843EA05230C4DA8420ED1CD6823F468
:1020C000006343EA05234D6922F4405242EA0512B7
:1020D0008D6923F4806342EA05124260C461496855
:1020E000C163036230BD0000002C014030B5046ABA
:1020F000026A22F4805202624268C3690D6823F4C6
:10210000E64343EA05238D6824F4005444EA053489
:10211000064DA84204D14D6922F4804242EA85125C
:102120004260C36149680164046230BD002C014013
:1021300010B5406A0021C185C184FFF70AF910BDBE
:1021400001680C3151E8002F22F4907241E800231D
:10215000002BF5D10168143151E8002F22F0010263
:1021600041E80023002BF5D1016B012909D1016859
:102170000C3151E8002F22F0100241E80023002B1F
:10218000F5D1202180F8421000210163704708B585
:1021900090F84210222901D0022008BD82684FF435
:1021A00080539A4201D1016921B1816A9A421BD0C0
:1021B0004AB10AE00268816A5268C2F308020A80E2
:1021C000816A891C08E0026972B10268526802F0F3
:1021D0007F020A70816A491C8162C18D491E09040F
:1021E000090CC18503D01BE002685268F1E7016861
:1021F000CA6822F02002CA600168CA6822F48072AC
:10220000CA6001684A6922F001024A61202180F80F
:10221000421000214163026B012A03D0FFF750FAFC
:10222000002008BD016301680C3151E8002F22F045
:10223000100241E80023002BF5D101680A68D2069C
:1022400002D50A6849680091818DFFF781F8E7E7B8
:1022500070B5044600680169E26821F440511143F9
:1022600001612169A0680843616908432168CA685F
:1022700041F20C639A430243CA6020684169A26933
:1022800021F44071114341611E492068884202D106
:10229000FEF738FD01E0FEF725FD00EBC00101EB84
:1022A0000012606864218000B2FBF0F3B3FBF1F32D
:1022B0006FF018067343B2FBF0F5B2FBF0F605EBD6
:1022C0008305322303EB0515B5FBF1F5B6FBF1F6FB
:1022D00005F0F00505EB0615B2FBF0F6B2FBF0F0E9
:1022E000B0FBF1F06FF01802504306EB800003EBF7
:1022F0000010B0FBF1F0216800F00F002844886066
:1023000070BD00000038014081628285C2850021D5
:102310004164222180F84210016921B10168CA6834
:1023200042F48072CA6001684A6942F001024A615F
:102330000068C16841F02001C160002070470000C2
:102340000148FFF707B80000C0000020FEE70907BA
:10235000090E002804DB00F1E02080F8001470472B
:1023600000F00F0000F1E02080F8141D704700001D
:10237000FEF792FBFFF7C0FDFFF74EFBFFF796FB62
:10238000FFF7B2FBFFF7F0FBFFF70CFCFDF7F6FFE2
:10239000FDF7C4FFFFF7AFFCFFF78EFC0021012320
:1023A00009A20846FFF74EFD012309A204210020DF
:1023B000FFF748FDFDF7F2FF0748FDF7C3FF00BF39
:1023C000FDF7BEFFFCE7000048656C6C6F00000085
:1023D000576F726C6400000091020008000000005A
:1023E000000000000000000000000000000000F8F5
:1023F00000000000000000333000000000100C0658
:10240000100C0000000000000000000040C07840F8
:10241000C0784000043F04043F040400007088FCBE
:1024200008300000001820FF211E0000F008F00016
:10243000E018000000211C031E211E0000F0088887
:10244000700000001E2123241927211010160E00F1
:10245000000000000000000000000000000000E09C
:1024600018040200000000071820400000020418B1
:10247000E00000000040201807000000404080F00D
:10248000804040000202010F01020200000000F043
:10249000000000000101011F010101000000000017
:1024A0000000000080B0700000000000000000008C
:1024B0000000000000010101010101010000000015
:1024C00000000000003030000000000000000000AC
:1024D0008060180400601806010000000000F00889
:1024E0000808F00000001F2020201F00000000103E
:1024F00010F8000000000020203F2020000000E035
:10250000080808000000003028242200000000080D
:1025100008F8000000000021213F2000000080405A
:1025200030F800000000000704043F040000F80831
:102530000808080000002120203020000000E010E2
:102540000808F00000000F1020200F0000001808FD
:1025500008C83800000000003F000000000070883C
:102560000888700000001C2221221C000000F008D6
:102570000808E0000000003121120F0000000000F8
:1025800000000000000030300000000000000000EB
:10259000000000000000B07000000000000000809B
:1025A0004020100800000001020408000000004064
:1025B0004040400000000202020202020000081037
:1025C0002040800000000804020100000000E01824
:1025D00008887000000000003036010000C030C8DC
:1025E00028E810E0000718232423140B0000C0384B
:1025F000E0000000203C23020227380600F888880B
:1026000088700000203F202020110E0000E01808F4
:1026100008081000000718202010080000F808081B
:102620000810E000003F202020100F0000FF8888E5
:10263000F8081000003F20202320180000FF8888A1
:10264000F8081000003F20202320100000E01808A8
:10265000080810000007182022123F0200F808089E
:1026600008F80000203F2101213F20000000080859
:10267000F80808000020203F20200000000000088B
:1026800008F8080800C08080807F000000F8888873
:10269000E0000000003F20233418270000FF000066
:1026A00000000000003F202020203000F808F0004B
:1026B000F008F800033E0300033E030000F800802A
:1026C00000000000003F200106183F0000E018084D
:1026D000080818E0000F30202020300F00F808080C
:1026E00008F00000203F21010100000000E0180870
:1026F000080818E0000F30282432210000F88888EC
:1027000088F00000203F2000031C2000007888088B
:1027100008083800001C202121221C00180808F895
:10272000080818000000203F2000000000F800000A
:102730000000F800001F202020201F0000F80000EB
:10274000C038F800000730C000000700F800C030B3
:10275000E010F80007300C03061907000000F80825
:10276000C03808000020310E010E31200018080882
:10277000F80818000000203F2100000000100808A1
:1027800008C8380000302C2221201800000000FE6C
:10279000020202000000007F4040400000000438B8
:1027A000C000000000000000010638000000020226
:1027B00002FE000000004040407F000000000004D6
:1027C0000202020000000000000000000000000003
:1027D00000000000808080808080808000000204F3
:1027E0000000000000000000000000000000008069
:1027F000808080000019242222223F2000F880805F
:1028000080800000003F202020110E00000000808A
:1028100080800000000E11202020110000000080A8
:102820008080F800000E112020103F2000008080E2
:1028300080800000001F2222222213000000C060BE
:1028400030F80000000000203F20200000008080C1
:1028500080808000006B94949493600000F88080E6
:1028600080800000203F210000203F2000000080E9
:10287000988000000020203F202000000000000081
:102880008098800000C08080807F000000F8008079
:1028900080000000203F24022D30200000000000B6
:1028A00000F8000000202020203F20208080808031
:1028B00080808000203F20003F20003F00808080FB
:1028C00080000000203F210000203F200000808089
:1028D00080800000000E112020110E0000808080FA
:1028E0008080000080FFA12020110E0000000080E9
:1028F00080808000000E112020A1FF800080808059
:102900000080800020203F21020101000000E0182B
:10291000080810000000312222211E0000008080E3
:1029200080F0800000000000001F20200080800058
:1029300000008000001F202020103F208080000029
:102940000080800000010E30080601008080000039
:1029500000008080000F300C030C300F008080805E
:10296000008080000020310E0E31200080800000A9
:102970000080808000818E701806010000808080B9
:1029800080808000003028242221200000000000E8
:10299000807C020200000000003F40400000000078
:1029A000FF00000000000000FF0000000002027CA9
:1029B000800000000040403F0000000000060101D0
:1029C00002020404000000000000000000000000FB
:1029D00000000000002F00000000070007000014A6
:1029E0007F147F1400242A7F2A12002313086462B4
:1029F00000364955225000000503000000001C224B
:102A00004100000041221C000014083E0814000888
:102A1000083E0808000000A0600000080808080838
:102A2000000060600000002010080402003E5149D0
:102A3000453E0000427F400000426151494600216E
:102A400041454B31001814127F1000274545453988
:102A5000003C4A49493000017109050300364949E3
:102A6000493600064949291E00003636000000009C
:102A700056360000000814224100001414141414E7
:102A80000041221408000002015109060032495990
:102A9000513E007C1211127C007F49494936003EAC
:102AA00041414122007F4141221C007F4949494167
:102AB000007F09090901003E4149497A007F080861
:102AC000087F0000417F4100002040413F01007F1E
:102AD00008142241007F40404040007F020C027FEA
:102AE000007F0408107F003E4141413E007F0909FC
:102AF0000906003E4151215E007F09192946004622
:102B0000494949310001017F0101003F4040403FF8
:102B1000001F2040201F003F4038403F0063140842
:102B2000146300070870080700615149454300001D
:102B30007F4141000002040810200041417F000055
:102B40000004020102040040404040400001020431
:102B50000000002054545478007F48444438003822
:102B60004444442000384444487F003854545418A6
:102B700000087E0901020018A4A4A47C007F0804B8
:102B800004780000447D4000004080847D00007F88
:102B9000102844000000417F4000007C04180478A5
:102BA000007C0804047800384444443800FC2424A1
:102BB00024180018242418FC007C08040408004889
:102BC0005454542000043F444020003C4040207CAA
:102BD000001C2040201C003C4030403C0044281099
:102BE0002844001CA0A0A07C004464544C44000075
:102BF000083641000000007F000000004136080058
:102C00000008040810080000000000000000010295
:102C10000304060708090000000001020304010282
:102C200002030405060708090A0B0C0D0E0F10100D
:102C3000502C00080000002024000000280100089B
:102C4000742C000824000020440700004401000800
:102C5000320001000000000032000000000000000F
:102C60000000000000127A000100000010000000C7
:042C70000000000060
:04000005080000ED02
:00000001FF
